{
  "contractName": "BalanceHolder",
  "abi": [
    {
      "constant": false,
      "inputs": [],
      "name": "withdraw",
      "outputs": [],
      "payable": false,
      "stateMutability": "nonpayable",
      "type": "function"
    },
    {
      "constant": true,
      "inputs": [
        {
          "name": "",
          "type": "address"
        }
      ],
      "name": "balanceOf",
      "outputs": [
        {
          "name": "",
          "type": "uint256"
        }
      ],
      "payable": false,
      "stateMutability": "view",
      "type": "function"
    },
    {
      "anonymous": false,
      "inputs": [
        {
          "indexed": true,
          "name": "user",
          "type": "address"
        },
        {
          "indexed": false,
          "name": "amount",
          "type": "uint256"
        }
      ],
      "name": "LogWithdraw",
      "type": "event"
    }
  ],
  "bytecode": "0x6060604052341561000f57600080fd5b6101838061001e6000396000f30060606040526004361061004b5763ffffffff7c01000000000000000000000000000000000000000000000000000000006000350416633ccfd60b811461005057806370a0823114610065575b600080fd5b341561005b57600080fd5b6100636100a3565b005b341561007057600080fd5b61009173ffffffffffffffffffffffffffffffffffffffff60043516610145565b60405190815260200160405180910390f35b73ffffffffffffffffffffffffffffffffffffffff3316600081815260208190526040808220805492905590919082156108fc0290839051600060405180830381858888f1935050505015156100f857600080fd5b3373ffffffffffffffffffffffffffffffffffffffff167f4ce7033d118120e254016dccf195288400b28fc8936425acd5f17ce2df3ab7088260405190815260200160405180910390a250565b600060208190529081526040902054815600a165627a7a723058208a1105ff773fbe988cbc9615a9f1715574031db45c1e72a2da0db1864753b67f0029",
  "source": "pragma solidity ^0.4.18;\n\ncontract BalanceHolder {\n\n    mapping(address => uint256) public balanceOf;\n\n    event LogWithdraw(\n        address indexed user,\n        uint256 amount\n    );\n\n    function withdraw() \n    public {\n        uint256 bal = balanceOf[msg.sender];\n        balanceOf[msg.sender] = 0;\n        msg.sender.transfer(bal);\n        LogWithdraw(msg.sender, bal);\n    }\n\n}\n",
  "sourcePath": "/var/www/html/dev/truffle/contracts/BalanceHolder.sol",
  "compiler": {
    "name": "solc",
    "version": "0.4.18+commit.9cf6e910.Emscripten.clang"
  },
  "schemaVersion": "1.0.1",
  "updatedAt": "2018-04-11T01:08:26.337Z"
}