{
  "contractName": "FireInsuranceExample",
  "abi": [
    {
      "constant": false,
      "inputs": [
        {
          "name": "realitycheck",
          "type": "address"
        },
        {
          "name": "content_hash",
          "type": "bytes32"
        },
        {
          "name": "arbitrator",
          "type": "address"
        },
        {
          "name": "min_timeout",
          "type": "uint256"
        },
        {
          "name": "min_bond",
          "type": "uint256"
        },
        {
          "name": "coverage_period",
          "type": "uint256"
        },
        {
          "name": "face_value",
          "type": "uint256"
        }
      ],
      "name": "requestPolicy",
      "outputs": [
        {
          "name": "",
          "type": "bytes32"
        }
      ],
      "payable": true,
      "stateMutability": "payable",
      "type": "function"
    },
    {
      "constant": false,
      "inputs": [],
      "name": "withdraw",
      "outputs": [],
      "payable": false,
      "stateMutability": "nonpayable",
      "type": "function"
    },
    {
      "constant": false,
      "inputs": [
        {
          "name": "policy_id",
          "type": "bytes32"
        }
      ],
      "name": "providePolicy",
      "outputs": [],
      "payable": true,
      "stateMutability": "payable",
      "type": "function"
    },
    {
      "constant": true,
      "inputs": [
        {
          "name": "",
          "type": "address"
        }
      ],
      "name": "balanceOf",
      "outputs": [
        {
          "name": "",
          "type": "uint256"
        }
      ],
      "payable": false,
      "stateMutability": "view",
      "type": "function"
    },
    {
      "constant": false,
      "inputs": [
        {
          "name": "policy_id",
          "type": "bytes32"
        }
      ],
      "name": "complete",
      "outputs": [],
      "payable": false,
      "stateMutability": "nonpayable",
      "type": "function"
    },
    {
      "constant": false,
      "inputs": [
        {
          "name": "policy_id",
          "type": "bytes32"
        },
        {
          "name": "question_id",
          "type": "bytes32"
        }
      ],
      "name": "claim",
      "outputs": [],
      "payable": false,
      "stateMutability": "nonpayable",
      "type": "function"
    },
    {
      "constant": false,
      "inputs": [
        {
          "name": "policy_id",
          "type": "bytes32"
        }
      ],
      "name": "cancelPolicyRequest",
      "outputs": [],
      "payable": false,
      "stateMutability": "nonpayable",
      "type": "function"
    },
    {
      "anonymous": false,
      "inputs": [
        {
          "indexed": true,
          "name": "user",
          "type": "address"
        },
        {
          "indexed": false,
          "name": "amount",
          "type": "uint256"
        }
      ],
      "name": "LogWithdraw",
      "type": "event"
    }
  ],
  "bytecode": "0x6060604052341561000f57600080fd5b61085e8061001e6000396000f3006060604052600436106100825763ffffffff7c01000000000000000000000000000000000000000000000000000000006000350416632d5ea57281146100875780633ccfd60b146100c357806358462f2d146100d857806370a08231146100e357806383ccfb841461010257806384cc9dfb14610118578063fef60bba14610131575b600080fd5b6100b1600160a060020a03600435811690602435906044351660643560843560a43560c435610147565b60405190815260200160405180910390f35b34156100ce57600080fd5b6100d661031e565b005b6100d66004356103a6565b34156100ee57600080fd5b6100b1600160a060020a0360043516610419565b341561010d57600080fd5b6100d660043561042b565b341561012357600080fd5b6100d6600435602435610576565b341561013c57600080fd5b6100d66004356106f8565b600080888888888833348a8a6040516c01000000000000000000000000600160a060020a039a8b16810282526014820199909952968916880260348801526048870195909552606886019390935295169093026088830152609c82019390935260bc81019190915260dc81019190915260fc01604051809103902090506101606040519081016040908152600160a060020a03808c16835260208084018c90528a821683850152606084018a9052608084018990523390911660a084015260c083018790523460e0840152610100830186905260006101208401819052610140840181905284815260019091522081518154600160a060020a031916600160a060020a0391909116178155602082015160018201556040820151600282018054600160a060020a031916600160a060020a0392909216919091179055606082015181600301556080820151816004015560a0820151600582018054600160a060020a031916600160a060020a039290921691909117905560c0820151816006015560e0820151816007015561010082015181600801556101208201518160090155610140820151600a919091018054600160a060020a031916600160a060020a039092169190911790555098975050505050505050565b600160a060020a033316600081815260208190526040808220805492905590919082156108fc0290839051600060405180830381858888f19350505050151561036657600080fd5b33600160a060020a03167f4ce7033d118120e254016dccf195288400b28fc8936425acd5f17ce2df3ab7088260405190815260200160405180910390a250565b600081815260016020526040812060070154116103c257600080fd5b600081815260016020526040902060080154156103de57600080fd5b6000818152600160205260409020600801543410156103fc57600080fd5b600090815260016020526040902034600882015542600990910155565b60006020819052908152604090205481565b600081815260016020526040812060068101546009909101548291829101421161045457600080fd5b505050600081815260016020526040812060088101546007820154600a909201549092600160a060020a0390911690831161048e57600080fd5b6000821161049b57600080fd5b600160a060020a03811615156104ad57fe5b600160a060020a0381166000908152602081905260409020546104e89084906104dc908563ffffffff61081c16565b9063ffffffff61081c16565b600160a060020a03909116600090815260208181526040808320939093559481526001948590529081208054600160a060020a03199081168255948101829055600281018054861690556003810182905560048101829055600581018054861690556006810182905560078101829055600881018290556009810191909155600a0180549093169092555050565b600082815260016020526040812060080154819081901161059657600080fd5b60008481526001602052604090206006810154600990910154014211156105bc57600080fd5b600084815260016020819052604080832080549281015460028201546003830154600490930154600160a060020a03958616966379c3fdaf968b96949593169351602001526040517c010000000000000000000000000000000000000000000000000000000063ffffffff881602815260048101959095526024850193909352600160a060020a0390911660448401526064830152608482015260a401602060405180830381600087803b151561067257600080fd5b6102c65a03f1151561068357600080fd5b50505060405180519250506001821461069b57600080fd5b50600083815260016020526040902060050154600160a060020a03168015156106c057fe5b600084815260016020908152604080832060080154600160a060020a038516845291839052909120546104e89163ffffffff61081c16565b6000818152600160205260408120600701541161071457600080fd5b6000818152600160205260409020600801541561073057600080fd5b60008181526001602052604090206005015433600160a060020a0390811691161461075a57600080fd5b600081815260016020908152604080832060070154600160a060020a033316845291839052909120546107929163ffffffff61081c16565b600160a060020a033316600090815260208181526040808320939093559281526001928390529081208054600160a060020a03199081168255928101829055600281018054841690556003810182905560048101829055600581018054841690556006810182905560078101829055600881018290556009810191909155600a0180549091169055565b60008282018381101561082b57fe5b93925050505600a165627a7a72305820048b686204645dec309fa63628699ff4e5f8229f4cf4824abfca48f24429518b0029",
  "source": "pragma solidity ^0.4.6;\n\nimport './SafeMath.sol';\nimport './BalanceHolder.sol';\n\ncontract RealityCheckAPI {\n    function getFinalAnswerIfMatches(bytes32 question_id, bytes32 content_hash, address arbitrator, uint256 min_timeout, uint256 min_bond) public returns (bytes32);\n}\n\ncontract FireInsuranceExample is BalanceHolder {\n\n    using SafeMath for uint256;\n\n    struct Policy {\n        address realitycheck;\n        bytes32 content_hash; \n        address arbitrator;\n        uint256 min_timeout; \n        uint256 min_bond;\n        address insuree;\n        uint256 coverage_period;\n        uint256 premium;\n        uint256 face_value;\n        uint256 coverage_start;\n        address insurer;\n    }\n    mapping(bytes32 => Policy) policies;\n\n    function requestPolicy(\n        address realitycheck, \n        bytes32 content_hash, \n        address arbitrator, \n        uint256 min_timeout, \n        uint256 min_bond,\n        uint256 coverage_period,\n        uint256 face_value\n    ) \n    payable public returns (bytes32) {\n        bytes32 policy_id = keccak256(realitycheck, content_hash, arbitrator, min_timeout, min_bond, msg.sender, msg.value, coverage_period, face_value);\n        policies[policy_id] = Policy(\n            realitycheck, \n            content_hash, \n            arbitrator, \n            min_timeout, \n            min_bond,\n            msg.sender,\n            coverage_period,\n            msg.value,\n            face_value,\n            0,\n            0x0\n        );\n        return policy_id;\n    }\n\n    function providePolicy(bytes32 policy_id) \n    payable public\n    {\n        require(policies[policy_id].premium > 0); \n        require(policies[policy_id].face_value == 0); \n        require(msg.value >= policies[policy_id].face_value);\n        policies[policy_id].face_value = msg.value;\n        policies[policy_id].coverage_start = now;\n    }\n\n    function cancelPolicyRequest(bytes32 policy_id) \n    public {\n        require(policies[policy_id].premium > 0);\n        require(policies[policy_id].face_value == 0);\n        require(policies[policy_id].insuree == msg.sender);\n        balanceOf[msg.sender] = balanceOf[msg.sender].add(policies[policy_id].premium);\n        delete policies[policy_id];\n    }\n\n    function claim(bytes32 policy_id, bytes32 question_id) \n    public {\n        require(policies[policy_id].face_value > 0);\n        require(now <= policies[policy_id].coverage_start + policies[policy_id].coverage_period);\n        bytes32 response = RealityCheckAPI(policies[policy_id].realitycheck).getFinalAnswerIfMatches(\n            question_id,\n            policies[policy_id].content_hash,\n            policies[policy_id].arbitrator,\n            policies[policy_id].min_timeout,\n            policies[policy_id].min_bond\n        );\n        require(uint256(response) == 1);\n        address insuree = policies[policy_id].insuree;\n        assert(insuree != 0x0);\n        balanceOf[insuree] = balanceOf[insuree].add(policies[policy_id].face_value);\n        delete policies[policy_id];\n    }\n\n    function complete(bytes32 policy_id) \n    public {\n        require(now > policies[policy_id].coverage_start + policies[policy_id].coverage_period);\n        uint256 face_value = policies[policy_id].face_value;\n        uint256 premium = policies[policy_id].premium;\n        address insurer = policies[policy_id].insurer;\n        require(face_value > 0);\n        require(premium > 0);\n        assert(insurer != 0x0);\n        balanceOf[insurer] = balanceOf[insurer].add(premium).add(face_value);\n        delete policies[policy_id];\n    }\n\n}\n",
  "sourcePath": "/var/www/html/dev/truffle/contracts/FireInsuranceExample.sol",
  "compiler": {
    "name": "solc",
    "version": "0.4.18+commit.9cf6e910.Emscripten.clang"
  },
  "schemaVersion": "1.0.1",
  "updatedAt": "2018-03-21T02:43:44.184Z"
}